:0400000080312828FB
:100008007E1480310B1F09280A2826282100111F79
:100018000E280F2818282000111F13281428182824
:100028008131C921803126282100911C1C281D28D6
:1000380026282000911C2128222826288131FC21ED
:10004800803126287E10090080312A282000A0014E
:10005800A101A201A301A401A501A601A701A8016C
:10006800A9017E10200081310929FF302000A00756
:10007800FF30A13D20082104031D43284428A92856
:100088001430F0000030F1002308F3002208F200D9
:100098008031AA20803171082000A1007008A000DA
:1000A800003200320032003292280130F90079081B
:1000B800A9072808031D6128622867280530AA00B7
:1000C8000030AB006B280A30AA000030AB002A08C9
:1000D80022008E00A9280130F9007908A907093003
:1000E80022008E00A9280130F9007908A9072808FC
:1000F800031D7F28802885280A30AC000030AD0019
:1001080089280530AC000030AD002C0822008E0094
:10011800A928A901063022008E00A9282000290854
:10012800F900FA017A08003A03199B28A9287908E6
:10013800003A03195928013A03196F28033A031999
:100148007728013A03198D28A9280800F601F11F1C
:10015800AE28AF28B628F009F109F00A0319F10A08
:10016800F601F60AF31FB928BA28C328F209F309D9
:10017800F20A0319F30A0130F4007408F606F701CD
:10018800F801700871040319CA28CB28FA28F50168
:10019800F50AD7280130F035F10D890BCF28013049
:1001A800F4007408F507F11FDA28DB28CE2801309F
:1001B800F735F80D890BDC2871087302031DE62852
:1001C80070087202031CE928EA28EF287008F20276
:1001D8007108F33B77140130F136F00C890BF028E5
:1001E8000130F502031DF928FA28DB2876080319DF
:1001F800FE28FF280429F709F809F70A0319F80A5D
:100208007808F1007708F00008008131B9218131C0
:100218008B170B1739302000AE000030AF0081314A
:10022800F021813182310622813164302000A00022
:100238000030A100003081316D21813120002F086C
:10024800A3002E08A2002308803AB20080303202B0
:10025800031D3029143022020318332934291E299A
:1002680014302000A2000030A3001E298031282865
:1002780022008C018D018E01083021009000FF3092
:100288008C00FF308D00F0308E00F03023008E009F
:100298002F308D003F308C00240090018D018C019F
:1002A8008E012100971725008C018D018E01FF30EA
:1002B80026008C00FF308D00FF308E003F30270075
:1002C8008C00F0308D00FF308E000C303C00B900FF
:1002D80008002000B1003108B000B00DB00D2900B1
:1002E8001008200030060339300629009000101449
:1002F8000D30890B7D29000029009014901885295C
:10030800862982290F082000AF0029000E08200046
:10031800AE000800043029009700960198012630A5
:1003280094009301200091102100911409302000BD
:10033800AE000230AF008131F0218131B0302900A8
:1003480095000800A0302900910092018E018F01CC
:1003580001309000210011170A302000AE00023051
:10036800AF008131F6218131080081313C21813192
:100378008131E421813182310222813181318E2122
:1003880081318131A621813108002000111326080E
:1003980027040319D029D129D62927088A00260835
:1003A8000A00813108002000240825040319DD29EA
:1003B800DE29E32925088A0024080A00813108007B
:1003C800703021009B0080309C009A019D011C1F09
:1003D800EE29EF29EB29080020002F08A5002E0898
:1003E800A400080020002F08A7002E08A600080077
:1003F800200091108131D721813108001630210069
:0E040800990008002900951708000800080058
:020000040001F9
:08000000FF3FFF3FFF3FFF3F00
:04000E00E43FFF3F8D
:00000001FF
