:08000000803102288731FD2F39
:100F5E0016302100990008008731B9278731B62F46
:100F6E00803102288731CF2787318731C3278731D8
:100F7E008731AF2787310800703021009B00803009
:100F8E009C009A019D011C1FCD2FCE2FCA2F080049
:100F9E0022008C018D018E01083021009000FF305F
:100FAE008C00FF308D00FF308E00FC3023008E0051
:100FBE003F308D003F308C00240090018D018C015C
:100FCE008E012100971725008C018D018E01FF30B7
:100FDE0026008C00FF308D00FF308E003F30270042
:100FEE008C00F0308D00FF308E000800200087311D
:020FFE00B32F0F
:020000040001F9
:08000000FF3FFF3FFF3FFF3F00
:04000E00E43FFF3F8D
:00000001FF
